:100000000C9463000C948B000C948B000C948B006C
:100010000C948B000C948B000C948B000C948B0034
:100020000C948B000C948B000C948B000C948B0024
:100030000C948B000C948B000C948B000C948B0014
:100040000C94C0130C948B000C94DE100C942511AE
:100050000C948B000C948B000C948B000C948B00F4
:100060000C948B000C948B000000000024002700EF
:100070002A0000000000250028002B0000000000DE
:1000800023002600290004040404040404040202DA
:100090000202020203030303030301020408102007
:1000A0004080010204081020010204081020000012
:1000B0000007000201000003040600000000000029
:1000C0000000C202621211241FBECFEFD8E0DEBFD3
:1000D000CDBF11E0A0E0B1E0EEE7FFE202C0059085
:1000E0000D92AC39B107D9F716E0ACE9B1E001C027
:1000F0001D92A037B107E1F710E0C6ECD0E004C0D4
:100100002297FE010E945F17C23CD107C9F70E94E7
:10011000B1130C94BD170C940000A0E0B0E0E3E92B
:10012000F0E00C948E17EC01A880B980CA80DB80C7
:10013000A114B104C104D10441F484E2A82E89EDD4
:10014000B82E8BE5C82E87E0D82EC601B5012DE16B
:1001500033EF41E050E00E946B1727EA31E440E0C2
:1001600050E00E94F5167B018C01C601B5012DE11E
:1001700033EF41E050E00E946B17CA01B9012CEE49
:1001800034EF4FEF5FEF0E94F5166E0D7F1D801F5D
:10019000911F97FF04C06150704080409048688371
:1001A00079838A839B839B013F77C901CDB7DEB7F3
:1001B000EAE00C94AA170E948D00089586E891E069
:1001C0000E948D000895A0E0B0E080938601909396
:1001D0008701A0938801B09389010895FB01DC0198
:1001E00004C08D910190801921F441505040C8F70E
:1001F000881B990B0895AF92BF92CF92DF92EF9236
:10020000FF920F931F93DF93CF93CDB7DEB72E9757
:100210000FB6F894DEBF0FBECDBFFC01A982BA8233
:10022000CB82DC82ED82FE820F83188729873A8792
:100230004B875C876D877E872F81388509851A8576
:1002400080819181815891408F5F9A4150F48281E1
:1002500093814FE08038940724F4815891400CF04A
:1002600051C0208131818CE1203838075CF08681D3
:1002700097816DEF7FEF0E942817778366838FE762
:100280009CE10EC08681978141E0213834075CF4FF
:100290006DEF7FEF0E9428177783668381E891E0F6
:1002A0009183808306C0820F931F9183808315867C
:1002B0001486228133818FE0203838075CF08085F6
:1002C00091856DEF7FEF0E942817718760878FE718
:1002D0009FE00EC08085918541E0213834075CF4B1
:1002E0006DEF7FEF0E9428177187608781E891E0AA
:1002F000938382831EC0820F931F9383828317860A
:10030000168617C0C9016AE070E00E94281786812E
:100310009781860F971F97838683C8016AE070E0F4
:100320000E94281780859185860F971F9187808767
:1003300098CF2E960FB6F894DEBF0FBECDBFCF91EB
:10034000DF911F910F91FF90EF90DF90CF90BF90C2
:10035000AF9008952F923F924F925F926F927F924B
:100360008F929F92AF92BF92CF92DF92EF92FF92C5
:100370000F931F93DF93CF93CDB7DEB72E970FB6B2
:10038000F894DEBF0FBECDBF8091AA019091AB0162
:1003900060E170E00E9428175B018091AC019091B0
:1003A000AD0160E170E00E942817CB017E876D8768
:1003B000489762E070E00E942817FB0116161706A6
:1003C00014F01E861D868D859E85489662E070E03D
:1003D0000E9428171B01683871051CF038E8232E8D
:1003E000312C31966F01CC0CDD1C32977F01EE0C65
:1003F000FF1C31963F01660C771C660C771C8EEB58
:1004000091E0680E791E2F0120E030E0D50157966B
:10041000BA83A983F5017896FC83EB83A501485143
:1004200050405E834D83C501479798878F83AD8584
:10043000BE855796BA87A987ED85FE857897FC8794
:10044000EB877FC0D30112960D911C9113978D906D
:100450009C90C40162E070E00E942817FB01E00F4D
:10046000F11F49815A814E175F07BCF4C40162E055
:1004700070E00E942817C801861B970BAB81BC81D6
:10048000A817B90754F04D855E85C416D5062CF023
:100490004E155F0514F02F5F3F4F8D819E81E81749
:1004A000F907BCF0C40162E070E00E942817C8019F
:1004B000861B970BAF81B8858A179B0754F44D852F
:1004C0005E85C416D5062CF04E155F0514F02F5F1F
:1004D0003F4FEA15FB0544F1C40162E070E00E9461
:1004E0002817061B170BA016B106F4F08D859E8504
:1004F000C816D9062CF08E159F0514F02F5F3F4FBC
:10050000A985BA85AC15BD052CF4AE15BF0514F44C
:100510002F5F3F4FEB85FC85CE16DF062CF0EE16E5
:10052000FF0614F02F5F3F4F0894411C511C42E01E
:1005300050E0C40ED51EE40EF51E84E090E0680E77
:10054000791E421453040CF47DCF80E0232B09F470
:1005500081E02E960FB6F894DEBF0FBECDBFCF91CF
:10056000DF911F910F91FF90EF90DF90CF90BF90A0
:10057000AF909F908F907F906F905F904F903F9043
:100580002F90089580E09FE09093AB018093AA01A3
:1005900080E898E09093AD018093AC011092AF0198
:1005A0001092AE011092B1011092B0011092B301FD
:1005B0001092B2011092B5011092B4011092B701DD
:1005C0001092B6011092B9011092B8011092BB01BD
:1005D0001092BA018EE190E09093BD018093BC012E
:1005E000EEEBF1E02AE030E080E09FE03183208311
:1005F00093838283349645E0EE37F407B9F7089584
:1006000085EC95E040E052EC61E070E00E9455110D
:1006100082E895E067E00E94D00F82E895E060E014
:1006200071E040E050E00E943D0AEEEBF1E020E591
:1006300030E080EF90E0318320839383828334968F
:1006400043E0EE3DF407B9F70895BF92CF92DF92F1
:10065000EF92FF920F931F936C01162FB72E42E873
:10066000E42E45E0F42EC70163E00E942509C7018E
:1006700060E471E00E940E09F6018081918162E0E0
:1006800070E00E942817CB0162817381681B790B8F
:10069000C701412F5B2D20E000E00E94E808F60131
:1006A0008081918162E070E00E942817CB01628115
:1006B0007381680F791FC701412F5B2D20E00E94D5
:1006C000E8081F910F91FF90EF90DF90CF90BF90BF
:1006D0000895EF92FF920F931F938C0152E8E52E3D
:1006E00055E0F52EC70161E00E942509F8018081DF
:1006F00091818058914060E170E00E9428179B0131
:10070000828193818058914060E170E00E942817B7
:10071000AB01C701B90120E000E00E94E8081F9189
:100720000F91FF90EF900895EF92FF920F931F9318
:100730008C0162E8E62E65E0F62EC7010E942308D0
:10074000B8016A5F7F4FA801485F5F4F9801265F3D
:100750003F4FC7010E943F0C80918C0590918D0501
:10076000F8019183808380918A0590918B05938312
:1007700082838091860590918705958384838091FB
:100780009205848715861F910F91FF90EF90089531
:10079000AF92BF92CF92DF92EF92FF920F931F938F
:1007A0008CE991E00E9494038AEA91E0A0909C0178
:1007B000B0909D01C0909E01D0909F01E090A0015B
:1007C000F090A1010091A2011091A3012091A40138
:1007D0003091A5014091A6015091A7016091A80117
:1007E0007091A9010E94FB0082E895E00E941E0919
:1007F00082E895E06FEF4FEF2FEF0E94170900E0BE
:1008000010E0C801880F991F880F991FB801660F63
:10081000771F82549E4F0E9425030F5F1F4F083899
:10082000110579F78AEA91E00E94690382E895E070
:100830006FEF40E020E00E94170982E895E060E059
:1008400070E040E050E02CE100E010E0FCE0EF2E32
:10085000F1E0FF2E0E949F0CC0907E05D0907F0596
:10086000EE24D7FCE094FE2C82E895E060E070E096
:100870004EE150E02CE10E94720982E895E060E0D0
:1008800040E02FEF0E941709C0908005D0908105AD
:10089000EE24D7FCE094FE2C82E895E060E070E066
:1008A0004CE350E02CE10E94720982E895E00E943E
:1008B000290C0E94AA0120917E0530917F05882392
:1008C00081F080918005909181058217930724F42F
:1008D000309381052093800510927F0510927E054C
:1008E00006C02F5F3F4F30937F0520937E05C09059
:1008F000D803D090D9036091D6037091D70388278D
:1009000077FD8095982F0E9406167B018C010E942E
:10091000DE00AA2797FDA095BA2FBC01CD010E9449
:10092000061620E03EEF4FEF56E40E946B159B0148
:10093000AC01C801B7010E94921620E030E040E807
:100940005EE30E9492160E94D3158B01CB01880FA3
:10095000991FC816D90614F498011DC080EF90E0C5
:10096000801B910B880F991F8C159D0524F496010F
:10097000201B310B12C00E94DE0080FF03C081E00B
:1009800090E002C08FEF9FEF809F9001819F300D1C
:10099000909F300D11242C0D3D1D80E590E090932B
:1009A000DB038093DA033093DD032093DC03EEEB6B
:1009B000F1E08481958191838083868197819383FF
:1009C0008283349683E0EA3DF80799F71F910F91EF
:1009D000FF90EF90DF90CF90BF90AF9008952CB52F
:1009E000382F33702C7F322B3CBD2DB590E0959580
:1009F00087959595879581702E7F822B8DBD089563
:100A00008AE061E00E9416158AE061E00E94D71436
:100A10008CB580618CBD8CB580648CBD8DE061E04F
:100A20000E94D7148BE061E00E94D7140895FC0166
:100A3000808161E00E9416158FEF8EBD0DB407FE18
:100A4000FDCF8EB508951F932FEF2EBD0DB407FE79
:100A5000FDCF1EB517FDF9CF0E9417058FEF8EBD94
:100A60000DB407FEFDCF8EB5812F1F91089588E04C
:100A700061E00E9416150895EF92FF920F931F9365
:100A80007B018C0188E060E00E941615C801AA274E
:100A9000BB2780688EBD0DB407FEFDCF8EB5BB278A
:100AA000A12F902F8F2D8EBD0DB407FEFDCF8EB5DB
:100AB000EEBC0DB407FEFDCF8EB51F910F91FF90D8
:100AC000EF9008950F931F93142F052F0E943C055C
:100AD0001EBD0DB407FEFDCF8EB50EBD0DB407FED5
:100AE000FDCF8EB50E9437051F910F9108950F938A
:100AF0001F938C010E943705F8016181728180E0AB
:100B000090E07F7080709070605070488F4E9F4F63
:100B10000E943C051F910F910895DF92EF92FF9282
:100B20000F931F93CF93DF93EC017A018B01D22EA9
:100B30000E943705C801B7010E943C05DEBC0DB418
:100B400007FEFDCF8EB5CE010E947705DF91CF91D4
:100B50001F910F91FF90EF90DF9008958F929F92D9
:100B6000AF92BF92CF92DF92EF92FF920F931F93BB
:100B7000CF93DF93EC016A017B01480159010E9488
:100B80003705C701B6010E943C058EBC0DB407FEB7
:100B9000FDCF8EB5BB27AB2D9A2D892D8EBD0DB403
:100BA00007FEFDCF8EB5C501AA27BB278EBD0DB4AC
:100BB00007FEFDCF8EB58B2D9927AA27BB278EBDAB
:100BC0000DB407FEFDCF8EB5CE010E947705DF91F3
:100BD000CF911F910F91FF90EF90DF90CF90BF903A
:100BE000AF909F908F9008958F929F92AF92BF92F7
:100BF000CF92DF92EF92FF920F931F93CF93DF93E9
:100C0000EC016A017B01480159010E943705C701C7
:100C1000B6010E943C058EBC0DB407FEFDCF8EB51B
:100C2000BB27AB2D9A2D892D8EBD0DB407FEFDCFB0
:100C30008EB5CE010E947705DF91CF911F910F9164
:100C4000FF90EF90DF90CF90BF90AF909F908F90EC
:100C50000895EF92FF920F931F937B018C0188E020
:100C600060E00E941615C801AA27BB278EBD0DB4EF
:100C700007FEFDCF8EB5BB27A12F902F8F2D8EBDE8
:100C80000DB407FEFDCF8EB5EEBC0DB407FEFDCF53
:100C90008EB51F910F91FF90EF900895AF92BF9284
:100CA000CF92DF92EF92FF920F931F93CF93DF9338
:100CB0005C01EB0169017A010E943705C701B601A9
:100CC0000E9429061EBC0DB407FEFDCF8EB508C0DC
:100CD0001EBC0DB407FEFDCF8EB5899301501040A8
:100CE00001151105A9F7C5010E947705DF91CF9184
:100CF0001F910F91FF90EF90DF90CF90BF90AF903A
:100D00000895EF92FF920F931F93CF93DF93EC011F
:100D10007A018B010E943705C801B7010E9429069C
:100D20001EBC0DB407FEFDCF8EB51EBC0DB407FE74
:100D3000FDCFFEB41EBC0DB407FEFDCF0EB51EBC2C
:100D40000DB407FEFDCFEEB41EBC0DB407FEFDCF03
:100D50001EB5CE010E9477056F2D702F8E2D912F1D
:100D6000DF91CF911F910F91FF90EF900895EF9237
:100D7000FF920F931F93CF93DF93EC017A018B01C6
:100D80000E943705C801B7010E9429061EBC0DB498
:100D900007FEFDCF8EB51EBC0DB407FEFDCF1EB500
:100DA000CE010E947705812FDF91CF911F910F9186
:100DB000FF90EF900895FC01808160E00E9416157D
:100DC00061E070E080E090E00E944D140895CF92C1
:100DD000DF92EF92FF920F931F93162F69017A0112
:100DE0000E94DB068FEF8EBD0DB407FEFDCF8EB5E2
:100DF00010641EBD0DB407FEFDCF8EB58F2D992753
:100E0000AA27BB278EBD0DB407FEFDCF8EB5C70147
:100E1000AA27BB278EBD0DB407FEFDCF8EB5BB271D
:100E2000AF2D9E2D8D2D8EBD0DB407FEFDCF8EB541
:100E3000CEBC0DB407FEFDCF8EB50EBD0DB407FEC2
:100E4000FDCF8EB58FEF8EBD0DB407FEFDCF8EB5F5
:100E50001F910F91FF90EF90DF90CF9008950F9327
:100E6000CF93DF93EC019A01AB018981882341F094
:100E700009E056954795379527950A95D1F702C011
:100E800020703E7FCE0161E105E90E94E706CE01B8
:100E90000E942305CE010E94DB069FEF9EBD0DB48C
:100EA00007FEFDCF8EB58E3FC9F7DF91CF910F9131
:100EB0000895AF92BF92CF92DF92EF92FF920F937D
:100EC0001F93CF93DF935C01EB0169017A01BA01B3
:100ED000A9010E942F07A601517080E090E02FEF3A
:100EE00006C02EBD0DB407FEFDCF3EB5019684179A
:100EF0009507B8F320E030E09FEF08C09EBD0DB429
:100F000007FEFDCF8EB589932F5F3F4F2017310726
:100F1000A8F320E030E082E092E0801B910B841B7C
:100F2000950B4FEF07C04EBD0DB407FEFDCF5EB56C
:100F30002F5F3F4F28173907B0F3C5010E941705EF
:100F4000DF91CF911F910F91FF90EF90DF90CF90A5
:100F5000BF90AF9008951F93182F88E060E00E9423
:100F600016151EBD0DB407FEFDCF8EB51EBC0DB40B
:100F700007FEFDCF8EB51EBC0DB407FEFDCF8EB5AE
:100F800088E061E00E9416156CE370E080E090E07C
:100F90000E944D141F910895CF93DF9364EE74E285
:100FA00080E190E00E9429061EBC0DB407FEFDCF33
:100FB0008EB51EBC0DB407FEFDCF3EB51EBC0DB4F4
:100FC00007FEFDCF2EB5922F80E0C32FD0E0C82BB7
:100FD000D92B0E9437058FE0CF3FD80779F485ECF5
:100FE00095E064E171E00E94AE1385EC95E06FEF4F
:100FF0007FE04AE050E00E949113FFCFCE01DF91E5
:10100000CF910895CF93DF93EC0189819A818C7FF2
:101010009F709A8389830E94370549815A8168EEBF
:1010200074E280E190E00E946205CE010E94CC074C
:1010300029813A8182179307C1F7CE010E94770573
:10104000DF91CF910895CF92DF92EF92FF920F93AD
:101050001F93182F092F89EBC82E85E0D82EC601C3
:101060000E940208E12EF02EC601B70120E030E90F
:1010700040E150E004E010E00E944E06E00EF11E58
:10108000C601B7012CE035E240E150E00DE010E090
:101090000E944E06E00EF11EC601B70128E734E2B9
:1010A00040E150E001E010E00E944E061F910F91D8
:1010B000FF90EF90DF90CF900895CF92DF92EF9264
:1010C000FF920F931F93CF93DF93EC017B018981F4
:1010D0009A819F709A8389830E94370549815A813A
:1010E0004C7F5F7068EE74E280E190E00E946205E0
:1010F0009CEFC92E9FE0D92E09811A81CE010E9452
:10110000CC07081B190B1F70C601801B910B9C8319
:101110008B838E159F0580F3CE010E947705DF91AA
:10112000CF911F910F91FF90EF90DF90CF90089596
:10113000EF92FF920F931F93CF93DF93EC01142F45
:10114000052FF62EE72E8B819C81049728F4CE0183
:1011500064E070E00E945D0889819A8104969A8318
:1011600089838B819C8104979C838B831EBD0DB4E6
:1011700007FEFDCF8EB50EBD0DB407FEFDCF8EB5BB
:10118000FEBC0DB407FEFDCF8EB5EEBC0DB407FE60
:10119000FDCF8EB5DF91CF911F910F91FF90EF9012
:1011A0000895482F89EB95E05FEF6FEF7FEF0E9486
:1011B0009808089585E10E94D1088FEF0E94D10818
:1011C0000895AB01BC0189EB95E00E949808089551
:1011D0000F93FB01602F30E0C9019695982F882767
:1011E00097958795682B35952795742F7295707F05
:1011F000722B34E0569547953A95E1F78E2F8295FC
:10120000880F807E23E0F695E7952A95E1F7842BF9
:101210009E2F90680E94E1080F91089580E090E071
:101220007F70807090709E600E94E1080895862F04
:10123000622F742F94E00E94E108089567E070E047
:1012400080E096E20E94E108089570E080E090E07E
:101250009F610E94E10808951F93CF93DF93EC01F3
:10126000162F8B819C81892B29F4CE0161E070E0DF
:101270000E945D0889819A8101969A8389838B8176
:101280009C8101979C838B831EBD0DB407FEFDCF0F
:101290008EB5DF91CF911F910895CF93DF93EC012D
:1012A00005C0219689EB95E00E942C096881662390
:1012B000C1F789EB95E00E942C09DF91CF91089549
:1012C000FF920F931F93682FF92E09EB15E0C801C9
:1012D0000E942C09C8016F2D0E942C091F910F91AB
:1012E000FF9008957F928F929F92AF92BF92CF927C
:1012F000DF92EF92FF920F931F935B014A01722ED0
:101300008EE20E94D108C5010E946009C4010E94BA
:101310006009872D90E00E946009C8010E94600961
:10132000C701B6010E94E1081F910F91FF90EF9055
:10133000DF90CF90BF90AF909F908F907F90089557
:101340001F93182F05C089EB95E060E00E942C09DF
:10135000812F90E0837090701F5F892BA1F71F9100
:101360000895DF92EF92FF920F931F93CF93DF9335
:101370008B01D42EC42FD52F7E018091BC05909176
:10138000BD058C179D0728F489EB95E0BE010E94EE
:101390005D088091BA059091BB058C0F9D1F9093BD
:1013A000BB058093BA058091BC059091BD058C1B4F
:1013B0009D0B9093BD058093BC053EC0F8018081D4
:1013C0008EBD0DB407FEFDCF8EB5F80181818EBDB7
:1013D0000DB407FEFDCF8EB5F80182818EBD0DB430
:1013E00007FEFDCF8EB5F80183818EBD0DB407FEDB
:1013F000FDCF8EB5F80184818EBD0DB407FEFDCF03
:101400008EB5F80185818EBD0DB407FEFDCF8EB57A
:10141000F80186818EBD0DB407FEFDCF8EB5F801B3
:1014200087818EBD0DB407FEFDCF88EF9FEFE80EDC
:10143000F91E085F1F4F8EB599E0E916F10408F018
:10144000BDCF0CC0F80180818EBD0DB407FEFDCF6D
:101450000F5F1F4F8EB50894E108F108E114F10405
:1014600089F78D2D83700E94A009DF91CF911F9184
:101470000F91FF90EF90DF9008952F923F924F923F
:101480005F926F927F928F929F92AF92BF92CF9214
:10149000DF92EF92FF920F931F93DF93CF93CDB71D
:1014A000DEB7C353D2400FB6F894DEBF0FBECDBF38
:1014B0007B011A010E94370510E0E7E0CE2ED12C07
:1014C000CC0EDD1E00E217C08E3281F0992787FD19
:1014D00090950E946317F601E10FF11D80831F5F55
:1014E00007C0F601E10FF11D00831F5F1830C8F33C
:1014F0000894E11CF11CD7018C91882329F706C0C0
:10150000FC01E10FF11D20831F5F03C0CE01079690
:1015100020E21B30A8F3CC24DD24760172E1A72E53
:10152000B12CAC0EBD1E67E0862E912C8C0E9D1E3C
:101530002091AD053091AE054091AF055091B005B9
:101540002C0D3D1D4E1D5F1D84E995E0B50100E2A7
:1015500010E00E945907C501B4014BE050E00E9421
:10156000EE000097C9F46EA47FA488A899A88CA562
:101570009DA57C0100E010E0809196058130C1F4CA
:101580008EA19FA1A0E0B0E0DC0199278827E82A7E
:10159000F92A0A2B1B2B0CC080E290E0A0E0B0E0FF
:1015A000C80ED91EEA1EFB1E8A89882309F64BC184
:1015B0004424AA24BB24650155245A94DE01A65D67
:1015C000BD4FCE5CDD4FB983A883C253D24016C154
:1015D000242D30E0809197059091980528173907C0
:1015E00009F048C080919605882309F5EE0CFF1C90
:1015F000001F111F8091A9059091AA05A091AB052C
:10160000B091AC05E80EF91E0A1F1B1F84E995E096
:10161000BE016F5F7F4FA801970102E010E00E94BA
:10162000590789819A817C0100E010E022C032E0F4
:10163000EE0CFF1C001F111F3A95D1F78091A905F0
:101640009091AA05A091AB05B091AC05E80EF91EEA
:101650000A1F1B1F84E995E0BE016D5F7F4FA80143
:10166000970104E010E00E945907EB80FC800D8197
:101670001E81442420919F053091A00540E050E058
:10168000C801B7010E94F516AB01BC018091B105FC
:101690009091B205A091B305B091B405480F591FC0
:1016A0006A1F7B1F842D90E0A0E0B0E029E0880F46
:1016B000991FAA1FBB1F2A95D1F7480F591F6A1FF0
:1016C0007B1F40705E7F84E995E00E942F07FE013A
:1016D000F2965EBC0DB407FEFDCF8EB580835EBC76
:1016E0000DB407FEFDCF8EB581835EBC0DB407FE41
:1016F000FDCF8EB582835EBC0DB407FEFDCF8EB5E7
:1017000083835EBC0DB407FEFDCF8EB584835EBCC3
:101710000DB407FEFDCF8EB585835EBC0DB407FE0C
:10172000FDCF8EB586835EBC0DB407FEFDCF8EB5B2
:101730008783CE5CDD4F88819981C253D240E81700
:10174000F90711F03896C5CF5EBC0DB407FEFDCF8A
:101750008EB55EBC0DB407FEFDCF8EB584E995E075
:101760000E94170589EB95E00E947705211431044A
:1017700051F0C601B50160507E4F8F4F9F4FA401BD
:101780009301F10109954394B401A3014A195B093E
:101790006C097D09413092E0590790E0690790E0BB
:1017A000790720F040E052E060E070E04D5F5F4F6D
:1017B0004C7F82E895E0BE016E5C7F4F0E94B109CC
:1017C0008091BA059091BB058C7F9F709093BB056B
:1017D0008093BA050E9437054091BA055091BB0528
:1017E00068EE74E280E190E00E94620580E092E0A1
:1017F000A0E0B0E0A80EB91ECA1EDB1EA614B704F6
:10180000C804D90408F4E4CE89EB95E00E9477057A
:1018100081E0CD5CDD4F0FB6F894DEBF0FBECDBFCB
:10182000CF91DF911F910F91FF90EF90DF90CF90BC
:10183000BF90AF909F908F907F906F905F904F90F0
:101840003F902F90089589EB95E00E94770580E006
:10185000E0CF60E070E080E090E00E94E10881E08D
:101860000E94D10886E20E94D10880E00E94D1083F
:1018700089EB95E060E070E00E945D0808956F924A
:101880007F928F929F92AF92BF92CF92DF92EF9210
:10189000FF921F93CF93DF937B016A015901CEEB37
:1018A000D5E01EE098E7692E91E0792E80EA882E37
:1018B000912C812F0E94B5149301281B390BC9016B
:1018C000889D9001899D300D989D300D1124232F06
:1018D000330F330B48815981CA01880F991F840F38
:1018E000951F9595879595958795280F391F29936D
:1018F00039931F5F1131E9F68091C2059091C305BC
:10190000F701918380838091C0059091C105F60114
:10191000918380838091BE059091BF05F5019183ED
:101920008083DF91CF911F91FF90EF90DF90CF9058
:10193000BF90AF909F908F907F906F9008959F92EF
:10194000AF92BF92CF92DF92EF92FF920F931F93CD
:101950006B015A01922E8CE00E94D108C6010E94B0
:101960006009C5010E946009892D90E00E9460090C
:10197000C8010E946009C7010E944D09D7010D905E
:101980000020E9F78A2F8E190E94A0091F910F915C
:10199000FF90EF90DF90CF90BF90AF909F90089511
:1019A000CF92DF92EF92FF920F931F936C0180E032
:1019B0000E94D10867E070E080E096E20E94E108B2
:1019C000C60160EF70E044E650E02EE100E012E076
:1019D00037E1E32E31E0F32E0E949F0CC6010E94F6
:1019E000DA0809EB15E0C8010E94020886E20E94AD
:1019F000D10880E00E94D108C80160E070E00E9438
:101A00005D081F910F91FF90EF90DF90CF900895A8
:101A10006F927F928F929F92AF92BF92CF92DF92FE
:101A2000EF92FF920F931F93DF93CF9300D000D0DC
:101A300000D0CDB7DEB74C01862FF401608361E0A2
:101A40000E94D71482E00E94EF04C4010E9417058F
:101A50006AE070E080E090E00E944D148AE09FEF21
:101A600005C09EBD0DB407FEFDCF2EB58150C8F751
:101A7000EE24FF24DD24DA94C40160E020E030E0AD
:101A800040E050E005E90E94E70609C00894E11C27
:101A9000F11CF8EEEF16F3E0FF0609F4EEC1DEBC30
:101AA0000DB407FEFDCF1EB517FDF0CFC4010E9497
:101AB0001705DEBC0DB407FEFDCF8EB51130E1F683
:101AC000C40168E02AEA31E040E050E007E80E9403
:101AD000E7068FEF8EBD0DB407FEFDCF0EB507FDF7
:101AE000F9CF84E09FEF9EBD0DB407FEFDCF2EB56C
:101AF0008150C9F7C4010E94170510E0013009F4B4
:101B000011E0112321F4CC24DD24760105C0C12C81
:101B1000D12CE12CA0E4FA2EC40167E320E030E0F0
:101B200040E050E005E90E94E706C4010E94230559
:101B3000C40169E2A70196010E94E706C4010E9460
:101B4000230580FF07C064E670E080E090E00E941B
:101B50004D14D7CF1123E9F1C4016AE320E030E04E
:101B600040E050E005E90E94E7068FEF8EBD0DB41E
:101B700007FEFDCF0EB407FCF9CFEE24FF2487014A
:101B800024E03FEF3EBD0DB407FEFDCF8EB5102F14
:101B90000F2DFE2CEE2490E0A0E0B0E0E82AF92A18
:101BA0000A2B1B2B215071F78FEF8EBD0DB407FE52
:101BB000FDCF8EB5C4010E941705EEE1169507957D
:101BC000F794E794EA95D1F78E2D8170F401818323
:101BD00002C0F4011182C401BE016F5F7F4F22EC8D
:101BE00031E040E050E001E010E00E9459078981B7
:101BF0008B50823018F0F401128203C081E0F401AE
:101C0000828373E0672E712C6C0E7D1EC401B301BC
:101C100026EC31E040E050E004E010E00E9459077B
:101C20002B813C814D815E8169E0220F331F441F6F
:101C3000551F6A95D1F7F401218B328B438B548B5E
:101C4000235F3F4F4F4F5F4FC4017E010894E11C5B
:101C5000F11CB70101E010E00E9459078981F401ED
:101C6000838314822189328943895489225F3F4FBB
:101C70004F4F5F4FC401B70102E010E00E945907C7
:101C800089819A81F4019683858383819481A0E080
:101C9000B0E029E0880F991FAA1FBB1F2A95D1F732
:101CA0009487838782812189328943895489882353
:101CB00009F06BC02F5E3F4F4F4F5F4FC401B7011C
:101CC0000E94590789819A81F4019087878321892D
:101CD0003289438954892A5E3F4F4F4F5F4FC40179
:101CE000B7010E945907E980FA80F401F286E18683
:101CF00085819681A0E0B0E019E0880F991FAA1FA6
:101D0000BB1F1A95D1F72189328943895489820FE3
:101D1000931FA41FB51F858B968BA78BB08F00E0F8
:101D200010E07AE0EE0CFF1C001F111F7A95D1F72E
:101D3000E80EF91E0A1F1B1FE18EF28E038F148F0F
:101D40006781708580E090E020EF3FEF4FEF5FEF1D
:101D50000E94F5169B01AC01F4016385748580E057
:101D600090E0620F731F841F951F2EEF3FEF4FEF20
:101D70005FEF0E94F516E60EF71E081F191FF4010B
:101D8000E58EF68E078F10A378C02C5D3F4F4F4F26
:101D90005F4FC401B30104E010E00E945907AB801B
:101DA000BC80CD80DE80F401218932894389548949
:101DB000245D3F4F4F4F5F4FC401B3010E9459074D
:101DC0002B813C814D815E81F401258736874787D1
:101DD000508BE580F68000E010E081899289A3892C
:101DE000B48969E0B695A795979587956A95D1F7D7
:101DF000E80EF91E0A1F1B1FAA0CBB1CCC1CDD1C05
:101E0000AE0CBF1CC01ED11EA9E0EE0CFF1C001FB3
:101E1000111FAA95D1F7E58AF68A078B108FE38008
:101E2000F480B70180E090E02250304040405040C4
:101E30000E94F5166A0D7B1D8C1D9D1DE9E0660F45
:101E4000771F881F991FEA95D1F7F401618F728F70
:101E5000838F948FEE0CFF1C00E010E0AE18BF08DB
:101E6000C00AD10A59E0AA0CBB1CCC1CDD1C5A9537
:101E7000D1F7A58EB68EC78ED0A284E00E94EF0463
:101E800026960FB6F894DEBF0FBECDBFCF91DF917F
:101E90001F910F91FF90EF90DF90CF90BF90AF9088
:101EA0009F908F907F906F9008950F931F938C0158
:101EB0000E943705C801429669E00E94080D89EB2F
:101EC00095E00E9477051F910F910895CF92DF92C0
:101ED000EF92FF920F931F9319EBC12E15E0D12EB5
:101EE000C60148E054E260E170E00E9481067B0197
:101EF0008C0189E09DE30E940814C60148E054E289
:101F000060E170E00E9481069B01AC012E193F093F
:101F1000400B510BB6E0220F331F441F551FBA95DB
:101F2000D1F7B901CA011F910F91FF90EF90DF9097
:101F3000CF900895DF92EF92FF920F931F93CF936C
:101F4000DF93EC01DD24CE010E94660F7B018C0142
:101F500080E0E81686ECF8068DEC080782E01807AA
:101F600068F489EB95E04CE655E260E170E02D2DD8
:101F70000E948D05D3948FE1D81629F789EB95E05F
:101F80004CE054E260E170E0980187010E94AE05E8
:101F9000DF91CF911F910F91FF90EF90DF90089507
:101FA000DF92EF92FF920F931F93CF93DF93EC0199
:101FB000162F88E061E00E94D71488E061E00E945B
:101FC000161589E061E00E94D71489E061E00E9463
:101FD00016150E94000584E00E94EF0481E08DBD8B
:101FE00080E00E94AB0788E60E94AB071092BB0519
:101FF0001092BA058CEF9FE09093BD058093BC05CD
:1020000089EB95E00E94770580E00E94D10867E0A7
:1020100070E080E096E20E94E108CE010E94290C67
:1020200089EB95E00E94020889EB95E048E654E2CE
:1020300060E170E021E00E948D0589EB95E04CE6BF
:1020400054E260E170E025E00E948D0589EB95E0A7
:1020500044E554E260E170E021E00E948D0589EBE7
:1020600095E040E654E260E170E023E00E948D05D7
:1020700089EB95E04CE854E260E170E023E80E94CF
:102080008D0589EB95E040E954E260E170E020E8DD
:102090000E948D05D12E10FF59C084EC95E060E0C0
:1020A00070E00E94CA108C3771F1CE010E94D00CF2
:1020B0008CE1E82E85E2F82E80E1082F112D89EBC6
:1020C00095E0B801A7010E94B706482FB7016B51F0
:1020D000754284EC95E00E94D1100894E11CF11C3B
:1020E000011D111D84E3E81685E2F80680E108076A
:1020F00080E0180721F784EC95E060E070E04CE7A1
:102100000E94D11023C00CE1E02E05E2F02E00E188
:10211000002F112DB7016B51754284EC95E00E94A0
:10212000CA10282F89EB95E0B801A7010E948D0500
:102130000894E11CF11C011D111D84E3E81685E2E1
:10214000F80680E1080780E0180721F789EB95E0A1
:1021500044E055E260E170E000EB14E020E030E0A4
:102160000E94F40585E595E59CAB8BAB1EAA1DAAE4
:10217000D2FE03C0CE010E94550FD1FE03C0CE0196
:102180000E949A0FDF91CF911F910F91FF90EF90D6
:10219000DF900895F999FECF72BD61BDF89A80B5C0
:1021A0000895F999FECF1FBA72BD61BD40BD0FB64B
:1021B000F894FA9AF99A0FBE089508951F920F9213
:1021C0000FB60F9211242F933F934F938F939F93AA
:1021D000EF93FF938091C00082FD19C04091C6002B
:1021E0008091E305282F30E02F5F3F4F2F73307031
:1021F0008091E40590E02817390759F0E091E30554
:10220000F0E0EB53FA4F42A32093E30502C0809124
:10221000C600FF91EF919F918F914F913F912F9128
:102220000F900FBE0F901F9018958091E30520919D
:10223000E40590E0805C9F4F821B91098F73907042
:10224000892B11F00E94DD1008951F920F920FB696
:102250000F9211242F938F939F93EF93FF9390915D
:10226000E5058091E605981731F48091C1008F7DD6
:102270008093C10010C0E091E605F0E0E95DF94F00
:1022800020818091E60590E001968F739070809395
:10229000E6052093C600FF91EF919F918F912F91BA
:1022A0000F900FBE0F901F901895AF92BF92DF92C4
:1022B000EF92FF920F931F93CF93DF93EC017A017C
:1022C0008B01DD24403081EE580780E0680780E014
:1022D000780711F0DD24D39491E0A92EB12CE88980
:1022E000F989DD2069F0C5010C8C02C0880F991FA7
:1022F0000A94E2F7808360E079E08DE390E005C026
:10230000108260E874E88EE190E0A80197010E94D5
:102310003B172150304040405040569547953795E7
:10232000279580E12030380720F0DD2011F0DD24F2
:10233000D6CFEC85FD853083EE85FF8520831D8E0D
:10234000EA89FB89408121E030E0C901088C02C0A4
:10235000880F991F0A94E2F7482B4083EA89FB898A
:102360004081C901098C02C0880F991F0A94E2F7C5
:10237000482B4083EA89FB894081C9010A8C02C04D
:10238000880F991F0A94E2F7482B4083EA89FB895A
:1023900080810B8C02C0220F331F0A94E2F7209534
:1023A00028232083DF91CF911F910F91FF90EF9011
:1023B000DF90BF90AF900895FC01268D878D30E0AF
:1023C000205C3F4F281B31092F733070C9010895DD
:1023D000FC01968D878D981719F42FEF3FEF06C0FB
:1023E000878DE80FF11D82A1282F30E0C9010895E3
:1023F000DC015E969C915E975F968C915F97981733
:1024000019F42FEF3FEF10C05F968C915F97FD019D
:10241000E80FF11D92A15F968C915F978F5F8F738C
:102420005F968C93292F30E0C9010895DC015D96F9
:102430008C915D97882339F05096ED91FC915197DE
:10244000808186FFF9CF5D961C920895DC019096FD
:102450008C919097282F30E02F5F3F4F2F73307073
:1024600091968C91919790E028173907C9F390962F
:102470008C919097FD01E80FF11DEE59FF4F60839D
:1024800090962C9390975296ED91FC9153972081C2
:1024900081E090E05B960C905B9702C0880F991FDB
:1024A0000A94E2F7282B208381E05D968C935D9758
:1024B0005096ED91FC91519780818064808381E0FA
:1024C00090E008951092C8051092C70588EE93E039
:1024D000A0E0B0E08093C9059093CA05A093CB0516
:1024E000B093CC058FE891E09093C6058093C50525
:1024F0001092E6058091E6058093E5051092E405CB
:102500008091E4058093E30585EC90E09093D205FB
:102510008093D10584EC90E09093D4058093D3050B
:1025200080EC90E09093D6058093D50581EC90E007
:102530009093D8058093D70582EC90E09093DA05CC
:102540008093D90586EC90E09093DC058093DB05C1
:1025500084E08093DD0583E08093DE0587E080934F
:10256000DF0585E08093E00581E08093E105089533
:10257000CF92DF92EF92FF920F931F93CF93DF934F
:102580007C016B018A01C0E0D0E00FC0D6016D91E3
:102590006D01D701ED91FC910190F081E02DC70113
:1025A0000995C80FD91F015010400115110571F789
:1025B000CE01DF91CF911F910F91FF90EF90DF90AF
:1025C000CF900895EF92FF920F931F938C01DC013F
:1025D000ED91FC910190F081E02D6DE009957C0179
:1025E000D801ED91FC910190F081E02DC8016AE0E5
:1025F00009959C012E0D3F1DC9011F910F91FF9060
:10260000EF900895CF93DF93EC016115710519F4F4
:1026100020E030E00FC0DB010D900020E9F71197BA
:10262000A61BB70BE881F9810280F381E02DAD0193
:1026300009959C01C901DF91CF9108954F925F9256
:102640007F928F929F92AF92BF92CF92DF92EF9242
:10265000FF920F931F93DF93CF93CDB7DEB7A19770
:102660000FB6F894DEBF0FBECDBF2C01742ECB0188
:10267000223008F42AE019A231E2C32ED12CCC0E6C
:10268000DD1E822E9924AA24BB24672D752FA50157
:1026900094010E943B1779018A01C801B701A50185
:1026A00094010E94F516472D461B0894C108D108D5
:1026B0004A3014F4405D01C0495CF6014083E114E6
:1026C000F1040105110521F07E2C5F2DC801DDCF3D
:1026D000C201B6010E940213A1960FB6F894DEBFA4
:1026E0000FBECDBFCF91DF911F910F91FF90EF9063
:1026F000DF90CF90BF90AF909F908F907F905F9032
:102700004F900895DC012115310541F4ED91FC91C4
:102710000190F081E02D642F099508950E941E1309
:102720000895CF92DF92EF92FF920F931F936C0167
:102730007B019A0100E010E0B801A7010E9482131A
:102740008C01C6010E94E212080F191FC8011F91D7
:102750000F91FF90EF90DF90CF9008950E940213A9
:102760000895CF93DF930E9412140E940003C5E1E5
:10277000D1E10E94C8032097E1F30E941511F9CF1F
:102780001F920F920FB60F9211242F933F938F93A6
:102790009F93AF93BF9380916B0690916C06A0912D
:1027A0006D06B0916E0630916F060196A11DB11DA8
:1027B000232F2D5F2D3720F02D570196A11DB11D20
:1027C00020936F0680936B0690936C06A0936D0622
:1027D000B0936E068091670690916806A091690695
:1027E000B0916A060196A11DB11D80936706909372
:1027F0006806A0936906B0936A06BF91AF919F9156
:102800008F913F912F910F900FBE0F901F901895B1
:10281000019739F0880F991F880F991F0297019728
:10282000F1F70895789484B5826084BD84B58160A1
:1028300084BD85B5826085BD85B5816085BDEEE6C8
:10284000F0E0808181608083E1E8F0E010828081A7
:1028500082608083808181608083E0E8F0E0808115
:1028600081608083E1EBF0E0808184608083E0EB35
:10287000F0E0808181608083EAE7F0E0808184601D
:102880008083808182608083808181608083808179
:10289000806880831092C1000895EF92FF920F9399
:1028A0001F93CF93DF937B018C013FB7F894809106
:1028B000670690916806A0916906B0916A0626B5F0
:1028C000A89B05C02F3F19F00196A11DB11D3FBF68
:1028D000BA2FA92F982F8827820F911DA11DB11DF6
:1028E00052E0880F991FAA1FBB1F5A95D1F7EC0120
:1028F00030C00E946A153FB7F894809167069091A6
:102900006806A0916906B0916A0626B5A89B05C025
:102910002F3F19F00196A11DB11D3FBFBA2FA92F5E
:10292000982F8827820F911DA11DB11D32E0880FBD
:10293000991FAA1FBB1F3A95D1F78C1B9D0B885E70
:102940009340B8F20894E108F10801091109C8514F
:10295000DC4FE114F1040105110559F6DF91CF9127
:102960001F910F91FF90EF900895982F8E3008F0EF
:102970009E50977080918A018295880F880F807C85
:10298000892B80937C0080917A00806480937A0008
:1029900080917A0086FDFCCF2091780040917900EB
:1029A000942F80E030E0282B392BC9010895CF9374
:1029B000DF93482F50E0CA0186569F4FFC013491A7
:1029C0004A575F4FFA018491882369F190E0880F9C
:1029D000991FFC01E859FF4FA591B491FC01EE58F5
:1029E000FF4FC591D491662351F42FB7F8948C9181
:1029F000932F909589238C93888189230BC0623013
:102A000061F42FB7F8948C91932F909589238C9330
:102A10008881832B88832FBF06C09FB7F8948C9141
:102A2000832B8C939FBFDF91CF910895482F50E067
:102A3000CA0182559F4FFC012491CA0186569F4FBF
:102A4000FC0194914A575F4FFA013491332309F402
:102A500040C0222351F1233071F0243028F421307A
:102A6000A1F0223011F514C02630B1F02730C1F0AA
:102A70002430D9F404C0809180008F7703C0809106
:102A800080008F7D8093800010C084B58F7702C056
:102A900084B58F7D84BD09C08091B0008F7703C05D
:102AA0008091B0008F7D8093B000E32FF0E0EE0FB7
:102AB000FF1FEE58FF4FA591B4912FB7F8946623EE
:102AC00021F48C919095892302C08C91892B8C9351
:102AD0002FBF089508950CD0EBC0E3D040F0DAD0BA
:102AE00030F021F45F3F19F0CCC0511115C1CFC0B7
:102AF000F0D098F39923C9F35523B1F3951B550BE7
:102B0000BB27AA2762177307840738F09F5F5F4FC0
:102B1000220F331F441FAA1FA9F333D00E2E3AF001
:102B2000E0E830D091505040E695001CCAF729D01B
:102B3000FE2F27D0660F771F881FBB1F261737076A
:102B40004807AB07B0E809F0BB0B802DBF01FF279A
:102B500093585F4F2AF09E3F510568F092C0DCC049
:102B60005F3FECF3983EDCF3869577956795B795D4
:102B7000F7959F5FC9F7880F911D9695879597F9EF
:102B80000895E1E0660F771F881FBB1F6217730768
:102B90008407BA0720F0621B730B840BBA0BEE1F7D
:102BA00088F7E095089504D06894B111B5C00895F0
:102BB00098D088F09F5790F0B92F9927B751A0F07F
:102BC000D1F0660F771F881F991F1AF0BA95C9F7C1
:102BD00012C0B13081F09FD0B1E008959CC0672F42
:102BE000782F8827B85F39F0B93FCCF38695779571
:102BF0006795B395D9F73EF490958095709561955A
:102C00007F4F8F4F9F4F0895E89409C097FB3EF484
:102C100090958095709561957F4F8F4F9F4F992329
:102C2000A9F0F92F96E9BB279395F69587957795A7
:102C30006795B795F111F8CFFAF4BB0F11F460FF67
:102C40001BC06F5F7F4F8F4F9F4F16C0882311F0BF
:102C500096E911C0772321F09EE8872F762F05C0D3
:102C6000662371F096E8862F70E060E02AF09A956E
:102C7000660F771F881FDAF7880F9695879597F963
:102C8000089597F99F6780E870E060E008959FEFEE
:102C900080EC089500240A941616170618060906F3
:102CA000089500240A9412161306140605060895C2
:102CB000092E0394000C11F4882352F0BB0F40F44A
:102CC000BF2B11F460FF04C06F5F7F4F8F4F9F4F8A
:102CD000089557FD9058440F551F59F05F3F71F00C
:102CE0004795880F97FB991F61F09F3F79F0879573
:102CF0000895121613061406551FF2CF4695F1DFFC
:102D000008C0161617061806991FF1CF869571058B
:102D1000610508940895E894BB2766277727CB01BF
:102D200097F908950BD0C4CFB5DF28F0BADF18F0BB
:102D3000952309F0A6CFABCF1124EECFCADFA0F3C5
:102D4000959FD1F3950F50E0551F629FF001729F40
:102D5000BB27F00DB11D639FAA27F00DB11DAA1F5F
:102D6000649F6627B00DA11D661F829F2227B00DAC
:102D7000A11D621F739FB00DA11D621F839FA00D37
:102D8000611D221F749F3327A00D611D231F849F87
:102D9000600D211D822F762F6A2F11249F575040DE
:102DA0008AF0E1F088234AF0EE0FFF1FBB1F661F79
:102DB000771F881F91505040A9F79E3F510570F032
:102DC00060CFAACF5F3FECF3983EDCF38695779512
:102DD0006795B795F795E7959F5FC1F7FE2B880F2D
:102DE000911D9695879597F90895629FD001739FDD
:102DF000F001829FE00DF11D649FE00DF11D929F97
:102E0000F00D839FF00D749FF00D659FF00D9927D5
:102E1000729FB00DE11DF91F639FB00DE11DF91FF9
:102E2000BD01CF0111240895AA1BBB1B51E107C0AE
:102E3000AA1FBB1FA617B70710F0A61BB70B881F4A
:102E4000991F5A95A9F780959095BC01CD010895D9
:102E500097FB092E07260AD077FD04D0E5DF06D0C0
:102E600000201AF4709561957F4F0895F6F79095BC
:102E700081959F4F0895A1E21A2EAA1BBB1BFD014D
:102E80000DC0AA1FBB1FEE1FFF1FA217B307E40749
:102E9000F50720F0A21BB30BE40BF50B661F771FA1
:102EA000881F991F1A9469F7609570958095909581
:102EB0009B01AC01BD01CF010895EE0FFF1F0590EE
:102EC000F491E02D09949111089581568A5108F4E6
:102ED00080528558089597FB092E05260ED057FD80
:102EE00004D0C9DF0AD0001C38F4509540953095C5
:102EF00021953F4F4F4F5F4F0895F6F7909580957E
:102F0000709561957F4F8F4F9F4F08952F923F92FD
:102F10004F925F926F927F928F929F92AF92BF92E9
:102F2000CF92DF92EF92FF920F931F93CF93DF9395
:102F3000CDB7DEB7CA1BDB0B0FB6F894DEBF0FBEF2
:102F4000CDBF09942A88398848885F846E847D843F
:102F50008C849B84AA84B984C884DF80EE80FD8041
:102F60000C811B81AA81B981CE0FD11D0FB6F894B7
:0E2F7000DEBF0FBECDBFED010895F894FFCF78
:102F7E0070696E62616C6C2E6764320053636F729F
:102F8E00653A2000723D00706C6561736520746156
:102F9E0070206F6E2074686520646F7400496868D5
:102FAE00686868004968686868484873004949005D
:102FBE00496868686848484800494949004968684E
:102FCE00686848484848004949494900496868685E
:102FDE0068684873004968684968684900496969C2
:102FEE0069696969004968686848484848480049FD
:102FFE0068686848480001000000010000000026D3
:0C300E0012B812DC11F811E811161200C3
:00000001FF
